S018000047455354555245636F6E74726C424F542E7372656376
S11300000C942A000C943F000C943F000C943F0085
S11300100C943F000C943F000C943F000C943F0060
S11300200C943F000C943F000C943F000C943F0050
S11300300C943F000C943F000C943F000C943F0040
S11300400C943F000C943F000C943F000C943F0030
S11300500C943F0011241FBECFE5D4E0DEBFCDBF1A
S113006010E0A0E6B0E0EAECF2E002C005900D92E8
S1130070A43AB107D9F70E9427010C9463010C94A8
S11300800000805C87B987ED86B9349BFECF24B12C
S113009035B1822F932F08959C01207F33272C5F45
S11300A028BBE9EFF0E03197F1F700C0000098B306
S11300B0945098BB8295807F8C5F88BB89EF90E0D9
S11300C00197F1F700C0000088B3845088BB0895FD
S11300D09C01207F33272B5F28BBE9EFF0E03197A9
S11300E0F1F700C0000028B3245028BB82959295F4
S11300F0907F9827807F98278B5F88BB89EF90E05B
S11301000197F1F700C0000088B3845088BB0895BC
S1130110CF93DF93EC018881882339F0219690E016
S11301200E94680089918111FACFDF91CF910895DF
S113013082E090E00E944C0088E290E00E944C0033
S11301408CE090E00E944C0086E090E00E944C001D
S1130150089580E182BB86E890E00E944C0080E62E
S113016090E00E94880083EC99E00197F1F700C0C9
S11301700000089580E482BB86E890E00E944C0071
S113018089E690E00E94880083EC99E00197F1F7FA
S113019000C00000089580E582BB86E890E00E94DC
S11301A04C0083E790E00E94880083EC99E001977B
S11301B0F1F700C00000089580EA82BB86E890E071
S11301C00E944C008CE790E00E94880083EC99E048
S11301D00197F1F700C0000008950F931F93CF9388
S11301E0DF938B01C82FD92FCE01895691404D97AB
S11301F030F4613981E0780714F00E94CB00CE011D
S11302008B5F9109C19738F4C8018D57914043978A
S113021010F40E94A900CE0187589140CB9738F47E
S1130220C80189569140439710F40E94BA00CD52F8
S1130230D140EB9738F40D5211400336110510F4F8
S11302400E94DC00DF91CF911F910F9108958FEFF1
S113025087BB81BB0E94980080E890E00E944C001C
S113026086E890E00E9488002FE38DE093E021501F
S113027080409040E1F700C0000081E090E00E94DF
S11302804C0083EF91E00197F1F700C0000080E893
S113029090E00E944C008EE890E00E94880080E08C
S11302A090E00E944100EC0181E090E00E94410056
S11302B0BC01CE010E94ED0087EA91E60197F1F7B7
S10D02C000C00000ECCFF894FFCF5B
S11302CA4C454654202020200052494748542020B7
S11302DA202000464F525741524420004241434B8A
S11302EA57415244200057454C434F4D4500456EF3
S11302FA746572207468652076616C756500535460
S107030A4F5020002C
S9030000FC
